{
  "_format": "hh-sol-artifact-1",
  "contractName": "ElectoralBond",
  "sourceName": "contracts/ElectoralBond.sol",
  "abi": [
    {
      "inputs": [
        {
          "internalType": "address",
          "name": "",
          "type": "address"
        }
      ],
      "name": "donees",
      "outputs": [
        {
          "internalType": "uint256",
          "name": "donorLength",
          "type": "uint256"
        }
      ],
      "stateMutability": "view",
      "type": "function"
    },
    {
      "inputs": [
        {
          "internalType": "address",
          "name": "_doneeAddress",
          "type": "address"
        }
      ],
      "name": "getAllDonations",
      "outputs": [
        {
          "components": [
            {
              "internalType": "address",
              "name": "donatorAddress",
              "type": "address"
            },
            {
              "internalType": "uint256",
              "name": "amount",
              "type": "uint256"
            }
          ],
          "internalType": "struct ElectoralBond.Donator[]",
          "name": "",
          "type": "tuple[]"
        }
      ],
      "stateMutability": "view",
      "type": "function"
    },
    {
      "inputs": [
        {
          "internalType": "address",
          "name": "_doneeAddress",
          "type": "address"
        }
      ],
      "name": "giveDonation",
      "outputs": [],
      "stateMutability": "payable",
      "type": "function"
    },
    {
      "inputs": [],
      "name": "registerDonee",
      "outputs": [],
      "stateMutability": "nonpayable",
      "type": "function"
    }
  ],
  "bytecode": "0x608060405234801561001057600080fd5b50610a9b806100206000396000f3fe60806040526004361061003f5760003560e01c806316b2fe2b14610044578063698f34e31461005b578063a7f8388114610098578063ffd707b8146100d5575b600080fd5b34801561005057600080fd5b506100596100f1565b005b34801561006757600080fd5b50610082600480360381019061007d919061077e565b61019f565b60405161008f91906108e8565b60405180910390f35b3480156100a457600080fd5b506100bf60048036038101906100ba919061077e565b61048a565b6040516100cc919061092a565b60405180910390f35b6100ef60048036038101906100ea919061077e565b6104a8565b005b6060806000604051806060016040528060008152602001848152602001838152509050806000803373ffffffffffffffffffffffffffffffffffffffff1673ffffffffffffffffffffffffffffffffffffffff168152602001908152602001600020600082015181600001556020820151816001019080519060200190610179929190610645565b5060408201518160020190805190602001906101969291906106cf565b50905050505050565b606060008060008473ffffffffffffffffffffffffffffffffffffffff1673ffffffffffffffffffffffffffffffffffffffff168152602001908152602001600020604051806060016040529081600082015481526020016001820180548060200260200160405190810160405280929190818152602001828054801561027b57602002820191906000526020600020905b8160009054906101000a900473ffffffffffffffffffffffffffffffffffffffff1673ffffffffffffffffffffffffffffffffffffffff1681526020019060010190808311610231575b50505050508152602001600282018054806020026020016040519081016040528092919081815260200182805480156102d357602002820191906000526020600020905b8154815260200190600101908083116102bf575b50505050508152505090506000816000015167ffffffffffffffff811115610324577f4e487b7100000000000000000000000000000000000000000000000000000000600052604160045260246000fd5b60405190808252806020026020018201604052801561035d57816020015b61034a61071c565b8152602001906001900390816103425790505b50905060005b826000015181101561047f5760006040518060400160405280856020015184815181106103b9577f4e487b7100000000000000000000000000000000000000000000000000000000600052603260045260246000fd5b602002602001015173ffffffffffffffffffffffffffffffffffffffff16815260200185604001518481518110610419577f4e487b7100000000000000000000000000000000000000000000000000000000600052603260045260246000fd5b6020026020010151815250905080838381518110610460577f4e487b7100000000000000000000000000000000000000000000000000000000600052603260045260246000fd5b6020026020010181905250508080610477906109d6565b915050610363565b508092505050919050565b60006020528060005260406000206000915090508060000154905081565b60008173ffffffffffffffffffffffffffffffffffffffff16346040516104ce906108d3565b60006040518083038185875af1925050503d806000811461050b576040519150601f19603f3d011682016040523d82523d6000602084013e610510565b606091505b5050905080610554576040517f08c379a000000000000000000000000000000000000000000000000000000000815260040161054b9061090a565b60405180910390fd5b60008060008473ffffffffffffffffffffffffffffffffffffffff1673ffffffffffffffffffffffffffffffffffffffff16815260200190815260200160002090508060000160008154809291906105ab906109d6565b91905055508060020134908060018154018082558091505060019003906000526020600020016000909190919091505580600101339080600181540180825580915050600190039060005260206000200160009091909190916101000a81548173ffffffffffffffffffffffffffffffffffffffff021916908373ffffffffffffffffffffffffffffffffffffffff160217905550505050565b8280548282559060005260206000209081019282156106be579160200282015b828111156106bd5782518260006101000a81548173ffffffffffffffffffffffffffffffffffffffff021916908373ffffffffffffffffffffffffffffffffffffffff16021790555091602001919060010190610665565b5b5090506106cb919061074c565b5090565b82805482825590600052602060002090810192821561070b579160200282015b8281111561070a5782518255916020019190600101906106ef565b5b509050610718919061074c565b5090565b6040518060400160405280600073ffffffffffffffffffffffffffffffffffffffff168152602001600081525090565b5b8082111561076557600081600090555060010161074d565b5090565b60008135905061077881610a4e565b92915050565b60006020828403121561079057600080fd5b600061079e84828501610769565b91505092915050565b60006107b38383610886565b60408301905092915050565b6107c88161099a565b82525050565b60006107d982610955565b6107e3818561096d565b93506107ee83610945565b8060005b8381101561081f57815161080688826107a7565b975061081183610960565b9250506001810190506107f2565b5085935050505092915050565b6000610839601083610989565b91507f556e61626c6520746f20646f6e617465000000000000000000000000000000006000830152602082019050919050565b600061087960008361097e565b9150600082019050919050565b60408201600082015161089c60008501826107bf565b5060208201516108af60208501826108b5565b50505050565b6108be816109cc565b82525050565b6108cd816109cc565b82525050565b60006108de8261086c565b9150819050919050565b6000602082019050818103600083015261090281846107ce565b905092915050565b600060208201905081810360008301526109238161082c565b9050919050565b600060208201905061093f60008301846108c4565b92915050565b6000819050602082019050919050565b600081519050919050565b6000602082019050919050565b600082825260208201905092915050565b600081905092915050565b600082825260208201905092915050565b60006109a5826109ac565b9050919050565b600073ffffffffffffffffffffffffffffffffffffffff82169050919050565b6000819050919050565b60006109e1826109cc565b91507fffffffffffffffffffffffffffffffffffffffffffffffffffffffffffffffff821415610a1457610a13610a1f565b5b600182019050919050565b7f4e487b7100000000000000000000000000000000000000000000000000000000600052601160045260246000fd5b610a578161099a565b8114610a6257600080fd5b5056fea2646970667358221220731708b2c5b3f18fda5ff5388422bf439e8978e89c559db79b4323f630380a0764736f6c63430008000033",
  "linkReferences": {},
  "deployedLinkReferences": {}
}